:020000040800F2
:100000000006002041770108C1780108ADA9000869
:10001000C178010891A9000875A90008C1780108F4
:10002000C1780108C1780108C17801082179010867
:1000300059A90008C1780108C1780108417A01086E
:10004000C1780108C1780108C1780108C1780108A8
:10005000C1780108C1780108C1780108C178010898
:10006000C1780108C1780108C17801086116020849
:10007000A1160208E11602082117020861170208FA
:10008000A1170208E117020851200208E125020821
:10009000012602082126020841260208C17801082B
:1000A00051430208D1420208C1780108F142020816
:1000B000114302083143020811470208712902085E
:1000C000F12A0208C1780108C1780108C178010845
:1000D000C1780108014C0208214C0208414C020879
:1000E000C1780108C1780108C1780108C178010808
:1000F000B1470208C1780108E14702082118020847
:10010000C1780108C1780108F1410208C1780108ED
:10011000C1780108C1780108C1780108C1780108D7
:1001200061180208A1180208E11802082119020842
:1001300061190208C1780108C17801086126020826
:1001400081260208A1260208C1260208F13402080D
:10015000A1190208E1190208211A0208C178010850
:10016000C1780108C1780108C1780108C178010887
:10017000C1780108C1780108C1780108C178010877
:08018000C1780108C1780108F3
:10018800790400081D0A00088D120008551C000893
:1001980099410008C9460008D16300086971000840
:1001A800657D0008F5A00008C5CF00088105010895
:0C01B800050701087D130108552E010801
:0801C400651C0008A9410008B8
:1001D00080B584B000AF78607B68002B09D142F60F
:1001E0006873C2F200034FF00002C7F6C0725A6192
:1001F0001FE07B6807EE903AB8EEE77A41F6A0532D
:10020000C2F200031B68D3EDF77A27EE277ADFED01
:10021000107AC7EE277AC7ED037A9FED0E7AD7EDF5
:10022000037AC7EE277A42F66873C2F20003C3ED81
:10023000057A42F6C070C2F2000046F69071C0F630
:1002400002017A681AF034FE1037BD4680BD00BF47
:100250000000704200247449B0B588B002AF7860E5
:1002600043F2C400C2F2000011F02CFC0346002B44
:1002700055D043F2C400C2F2000011F017FC05464D
:1002800006F0AEF8044610F0FBFD0346009342F67C
:10029000C070C2F2000046F6B871C0F602012A46EC
:1002A00023461AF005FE41F6A053C2F200031A6875
:1002B00041F6A853C2F200031B6842F6C070C2F2B6
:1002C000000011461A4606F0A5FD41F6A853C2F2F9
:1002D00000031B6810337B617B695B6B1B68BB6031
:1002E0007B695B6B04331B68FB607B695B6B08336A
:1002F0001B683B61786902F099FA02467B699B6B47
:1003000007F108010091786811461A46032307F0A7
:10031000CFF97B684FF00002CBF680721A63183772
:10032000BD46B0BD90B58BB004AF786042F6C070EA
:10033000C2F2000046F6E871C0F602011AF0C8FBEE
:1003400041F6A853C2F200031B6810337B614FF4DF
:100350009660FFF73DFF7B695B6B1B68BB607B6949
:100360005B6B04331B68FB607B695B6B08331B684A
:100370003B61786902F05AFA02467B699C6B032361
:10038000009307F10803019340F25923C0F60003DC
:1003900002937B68039347F20400C0F6020042F622
:1003A0006871C2F20001234607F0C4F947F2140055
:1003B000C0F6020040F2D111C0F6000119F048FD6C
:1003C0001C37BD4690BD00BF90B583B000AF7860CC
:1003D00039607B68012B4BD13A684FF6FF739A4224
:1003E00046D142F66834C2F20004204641F6B071AC
:1003F000C2F2000111F08AFB0434204642F2983127
:10040000C2F2000111F082FB231D184642F28071F6
:10041000C2F2000111F07AFB42F67433C2F200031B
:1004200042F66832C2F2000212681A601A1D42F6E1
:100430006833C2F200035B681360043242F668332B
:10044000C2F200039B68136042F66870C2F20000BB
:1004500042F68031C2F2000142F67432C2F200026A
:1004600006F0E2FF43F2C400C2F2000011F010FBFC
:100470000C37BD4690BD00BF80B500AF01204FF6E0
:10048000FF71FFF7A1FF80BD000000000000000029
:1004900080B582B000AF78607B681B68002B08D104
:1004A00047F22000C0F6020012F092FF4FF0FF3337
:1004B00005E07B681B68184600F040F803461846C4
:1004C0000837BD4680BD00BF80B483B000AF786000
:1004D0007B6800221A60796805A3D3E90023C1E98B
:1004E00002237B6818460C37BD465DF8047B7047D5
:1004F000806967FFFFFFFFFF80B584B000AF7860C1
:1005000010F0A0FCC7E902017B68D3E90223D7E918
:100510000201821A61EB030344F23F20C0F20F0094
:100520004FF00001994208BF904234BF00230123DD
:10053000DBB218461037BD4680BD00BF80B582B023
:1005400000AF78607868FFF7D7FF034683F00103B8
:10055000DBB2002B01D0002301E07B681B6818464A
:100560000837BD4680BD00BF80B483B000AF78605F
:100570007B68002B06DD7A6847F22F539A4201DC34
:10058000012300E0002318460C37BD465DF8047BCC
:10059000704700BF80B582B000AF4BF61C60C2F25E
:1005A0000000FFF775FF786041F6A053C2F2000328
:1005B0001B681846796811F0C3FF0346002B0CBF77
:1005C00000230123DBB218460837BD4680BD00BFBB
:1005D00080B487B000AFF860C7E90023FB68D3E9B7
:1005E0000223D7E90001821A61EB0303C7E9042360
:1005F000D7E90423002B08BF282A2CBF002301239E
:10060000DBB218461C37BD465DF8047B704700BF5F
:1006100080B58CB000AF0346B9607A60FB73BB68ED
:10062000002B25D041F6A053C2F200031B68B3F89B
:100630004E311BB2012B1AD110F004FC02460B46BE
:100640001046194600F0F2F8B0EE407AFB7B4FF40A
:100650007A7202FB03F2BB68134406EE903AF8EE9E
:10066000E67AB0EE470AF0EE670A1CF091FE64E00D
:100670007B681B695A1C7B681A6110F0E3FBC7E9B1
:100680000A017868FFF738FF034687F8273097F8A4
:100690002730002B31D07868D7E90A23FFF798FF7D
:1006A0000346002B0CBF00230123DBB2002B04D038
:1006B0007B684FF0FF321A601FE07B68D3E90223AA
:1006C000D7E90A01821A61EB0303C7E906231CA1DB
:1006D000D1E90001D7E9062315F05AFD02460B4681
:1006E00013467B617A6947F230539A4201DC7B6999
:1006F00001E04FF0FF337A6813607968D7E90A2385
:10070000C1E9022341F6A053C2F200031B68B3F80B
:100710004E311BB2012B10D1D7E90A0100F086F847
:10072000B0EE407ABB6806EE903AF8EEE67AB0EEAC
:10073000470AF0EE670A1CF02BFE3037BD4680BD3D
:10074000000E27070000000080B500AF4BF61C60CC
:10075000C2F20000FFF79CFE034643F20020C2F203
:100760000000194611F098F847F23C00C0F602006C
:1007700043F20021C2F2000147F24002C0F6020239
:1007800000F024F980BD00BF80B586B000AF0346FD
:10079000B9607A60FB73BB68002B14BF0023012390
:1007A000FB75FB7D002B24D000F034F80246D317F4
:1007B000DB0F1A4402F00102D31A3B613A69134677
:1007C0005B001344DB0043F2D012C2F200021A4471
:1007D00041F6A053C2F200031B68D3EDEA7A10463B
:1007E000B0EE670A40F24971C0F60001002200F045
:1007F00099F81837BD4680BD80B400AF43F210238E
:10080000C2F20003D3E9022310461946BD465DF843
:10081000047B704780B400AF43F21023C2F20003A0
:100820001B691846BD465DF8047B704780B586B0ED
:1008300000AFC7E9000143F21023C2F20003D3E97D
:100840000223D7E90001821A61EB0303C7E90423FD
:1008500043F21020C2F20000FFF770FE0346184674
:1008600011F07AFD87ED030AD7E9040115F060FA6B
:1008700007EE100ADFED087A27EE277AD7ED037A24
:10088000C7EE277A9FED057AC7EE877AB0EE670A42
:100890001837BD4680BD00BF0000B44300007A4455
:1008A00080B500AF43F2C800C2F2000047F2440135
:1008B000C0F602011AF00CF94BF61C63C2F20003F9
:1008C00043F21022C2F200021A6043F2D013C2F2C5
:1008D000000347F25002C0F602025A6143F2D013FD
:1008E000C2F2000347F25802C0F60202DA6240F296
:1008F0008970C0F6000047F26001C0F602010022D4
:1009000000F0CAF840F21160C0F6000047F2700132
:10091000C0F6020143F21022C2F2000200F0BCF85D
:1009200080BD00BF80B588B002AFF86087ED020AD5
:1009300079603A604BF61C60C2F20000FFF7A8FD38
:1009400078617869FFF710FE034683F00103DBB29C
:10095000002B09D040F25E2047F28001C0F6020170
:100960007A691FF08DFE2CE0786911F0C9FCB0EEB9
:10097000407AD7ED027A67EE277AC7ED047A97EDD1
:10098000040A10F0E5FD0346002B06D047F2900064
:10099000C0F6020012F01CFD13E097ED047ADFEDC3
:1009A0000A7A67EE277AFDEEE77A17EE902A3B681F
:1009B000009347F29C00C0F60200F9687B6807F0DC
:1009C0007FF91837BD4680BD00007A4480B584B0F9
:1009D00000AFF860B9607A6043F22820C2F20000EC
:1009E000F968BA687B6820F02BFA1037BD4680BDE5
:1009F00080B582B000AF786039607B68012B0AD186
:100A00003A684FF6FF739A4205D143F21020C2F2C2
:100A10000000FFF759FD0837BD4680BD80B500AF27
:100A200001204FF6FF71FFF7E3FF80BDAFF30080B9
:100A300080B500AF44F25810C2F2000002F084F812
:100A400002460B461046194680BD00BF80B500AF78
:100A500044F25810C2F2000002F068F802460B4659
:100A60001046194680BD00BF80B584B000AFF86065
:100A7000B9607A603B6047F2B000C0F60200796866
:100A800019F066FDFB6888331846B9683A6818F0B3
:100A900077FE1037BD4680BD80B584B000AFF860EA
:100AA000B9607A6044F25810C2F20000F968BA687E
:100AB0007B68FFF7D9FF1037BD4680BDB0B584B065
:100AC00002AF0346FB7141F6B453C2F200031D6846
:100AD00010F0B8F902460B46FC79CDE9002344F248
:100AE0005810C2F200002946224600F0A9F8083743
:100AF000BD46B0BD80B582B000AF78607B68184657
:100B000001F0D2FF7B6803F582731846002118229A
:100B100016F0FEF87B688833184618F071FE7B6883
:100B200018460837BD4680BD80B483B000AF7860FA
:100B300039607A683B6840339B0013445B68184611
:100B40000C37BD465DF8047B704700BF80B582B0AE
:100B500000AF03463960FB713848396810F09CFEDD
:100B6000FB79012B0ED147F2CC00C0F6020047F210
:100B7000D001C0F6020144F27C32C2F20002FFF75B
:100B800025FF58E0FB79002B0ED147F2CC00C0F6D0
:100B9000020047F2D401C0F6020144F27C32C2F2F4
:100BA0000002FFF713FF46E0FB79032B0ED147F25B
:100BB000D800C0F6020047F2D001C0F6020144F2AC
:100BC0007C32C2F20002FFF701FF34E0FB79022B16
:100BD0000ED147F2D800C0F6020047F2D401C0F6A9
:100BE000020144F27C32C2F20002FFF7EFFE22E083
:100BF000FB79052B0ED147F2DC00C0F6020047F26C
:100C0000D001C0F6020144F27C32C2F20002FFF7CA
:100C1000DDFE10E0FB79042B0DD147F2DC00C0F6BD
:100C2000020047F2D401C0F6020144F27C32C2F263
:100C30000002FFF7CBFE0837BD4680BD7D43002094
:100C4000B0B58EB002AFF860B9601346FB71BB68F7
:100C5000002B06D147F2E000C0F6020012F0B8FB0C
:100C6000EAE0BB681B68002B06D147F2F000C0F633
:100C7000020012F0ADFBDFE0BB685B68002B06D121
:100C800047F20410C0F6020012F0A2FBD4E04FF4C9
:100C90008053CEF200035B68BB62FB797B627B6AA8
:100CA000002B02DB7B6A052B06DD47F21C10C0F629
:100CB000020012F08DFBBFE0FA687B6A40339B00B4
:100CC00013445B685A1CF9687B6A40339B000B44F1
:100CD0005A6040F60043C2F20003D3E90023D7E98B
:100CE0001001821A61EB030344F24020C0F20F00AE
:100CF0004FF00001994208BF90422CBF002301230E
:100D0000DBB2002B02D0FB6800221A7140F60043D0
:100D1000C2F20003D7E91001C3E90001BB685B68B8
:100D200010333B62F968BB681B6803F58065FC798A
:100D3000D7E91023CDE900230846396A2A4623461D
:100D400002F06AFDFB681B7983F00103DBB2002B24
:100D500000D071E0BB681B68184606F0BFF8034678
:100D6000022B14BF00230123DBB2002B05D0FB684C
:100D7000184601F0CFFEF8621BE0FB68184601F050
:100D80003BFF034603F00103002B14BF00230123A4
:100D9000FB77FB68184601F0BDFE0446FB7F002B85
:100DA00001D0002303E0386A01F040FD03462344EC
:100DB000FB62FB791846F96AFFF7C8FEFB68184624
:100DC00001F0A8FE0246BB685B68DB6C9A42B4BFC8
:100DD00000230123DBB2002B0ED0FB68184601F084
:100DE00099FE034640F25E2047F22811C0F6020148
:100DF0001A461FF045FC08E0FB6803F18802FB7906
:100E000010461946FA6A18F0E3FC4FF48053CEF20C
:100E100000035B68BB61BA69BB6AD31A7B617B69FB
:100E2000002B09DD7B691A464FEAE27343F2383042
:100E3000C2F2000018F024FE3037BD46B0BD00BF3E
:100E400080B500AF44F27820C2F2000043F238319E
:100E5000C2F200011AF02CF980BD00BF80B584B049
:100E600002AF41F6A853C2F200031B6810333B6087
:100E700000237B601BE03A687B6812339B001344BD
:100E800004331B68184614F01FFB02460B46CDE9DD
:100E9000002344F27820C2F2000047F24411C0F669
:100EA00002017A681AF004F87B6801337B603868C5
:100EB00001F0BCFC02467B689A42D4BF00230123A8
:100EC000DBB2002BD7D10837BD4680BDF0B583B06B
:100ED00002AF41F6A053C2F200031B68D3F81433EB
:100EE000184606F04DF9024641F6A053C2F200033F
:100EF0001B68D3F814331C4641F6A053C2F200031A
:100F00001B68D3F80034009344F27820C2F200004A
:100F100047F25011C0F60201234619F0C9FF44F20E
:100F20005810C2F200000021FFF7FEFD054644F212
:100F30005810C2F200000121FFF7F6FD044644F20A
:100F40005810C2F200000221FFF7EEFD064644F2FF
:100F50005810C2F200000321FFF7E6FD0346009699
:100F6000019344F27820C2F2000047F26C11C0F6FF
:100F700002012A46234619F09BFF41F6A853C2F20C
:100F800000031B685A6B41F6A853C2F200031B68AA
:100F90009C6B41F6A853C2F200031B68DB6B009305
:100FA00044F27820C2F2000047F29011C0F602012C
:100FB000234619F07DFF41F6A053C2F200031B68DF
:100FC000D3F800341C4641F6A053C2F200031B685C
:100FD00003F5B85304331B78C3F30013DBB2184690
:100FE00010F0CCFA034644F27820C2F2000047F237
:100FF000B011C0F60201224619F05AFF41F6A8537B
:10100000C2F200031B68DB69184614F05DFA04465F
:101010000D4641F6A853C2F200031B681B6A18462E
:1010200014F052FA02460B46CDE9002344F2782030
:10103000C2F2000047F2D411C0F6020122462B464C
:1010400019F036FF41F6A453C2F200031B68D3F82F
:10105000543118461DF0F4FA044641F6A453C2F286
:1010600000031B68D3F86031184606F02FF90346D9
:1010700044F27820C2F2000047F2F011C0F60201FB
:10108000224619F015FF41F6A453C2F200031B6873
:10109000D3F8583118461DF0D3FA044641F6A4534C
:1010A000C2F200031B68D3F86431184606F00EF94B
:1010B000034644F27820C2F2000047F21421C0F641
:1010C0000201224619F0F4FE41F6A453C2F20003D5
:1010D0001B68D3F85C3118461DF0B2FA044641F69D
:1010E000A453C2F200031B68D3F86831184606F017
:1010F000EDF8034644F27820C2F2000047F23821AE
:10110000C0F60201224619F0D3FE41F6A453C2F202
:1011100000031B68D3F81C3118461DF091FA0346F2
:1011200044F27820C2F2000047F25821C0F60201D2
:101130001A4619F0BDFE41F6A453C2F200031B6823
:10114000D3F8203118461DF07BFA034644F278208C
:10115000C2F2000047F27421C0F602011A4619F0EB
:10116000A7FE41F6A453C2F200031B68D3F87831FE
:1011700018461DF065FA034644F27820C2F20000DA
:1011800047F29021C0F602011A4619F091FE41F68D
:10119000A453C2F200031B68D3F87C3118461DF03B
:1011A0004FFA034644F27820C2F2000047F2A82129
:1011B000C0F602011A4619F07BFE0437BD46F0BDA9
:1011C00080B582B000AF786044F25810C2F20000DF
:1011D000796802F0F3FAF0EE407AB0EE670A083769
:1011E000BD4680BD80B582B000AF786044F27C33EC
:1011F000C2F200035F221A8043F22820C2F20000EC
:101200001FF0AEFE44F27820C2F2000047F2C42183
:10121000C0F6020119F05CFC47F2D420C0F60200CF
:1012200040F6CD61C0F6000118F00AFE47F2E0205A
:10123000C0F6020040F65D61C0F6000118F000FE45
:1012400043F23830C2F2000047F2F421C0F6020146
:1012500018F0EEFB02F076FF0837BD4680BD00BFF8
:1012600080B582B000AF786039607B68012B0AD10D
:101270003A684FF6FF739A4205D144F25810C2F211
:101280000000FFF737FC0837BD4680BD80B500AFD2
:1012900001204FF6FF71FFF7E3FF80BD0000000063
:1012A00080B586B000AFF860B9607A60FB681B68F3
:1012B0007868194604F076FDB0EE407AFB685B680A
:1012C00003F22443D3ED007A67EE277AC7ED057A5F
:1012D00097ED050A10F03CF90346002B08D040F2C8
:1012E0005E2047F21031C0F602011FF0C9F929E073
:1012F000D7ED057AF5EEC07AF1EE10FA0DD57869E2
:1013000014F0E2F802460B4640F25E2047F2243128
:10131000C0F602011FF0B4F914E0786810F0F0FF95
:10132000B0EE407ABB68D3ED027A67EE277AC7ED5C
:10133000047ABB68DB68184697ED040AD7ED050A06
:101340001FF02EFA1837BD4680BD00BF90B589B09A
:1013500000AFF860B9607A603B60BB685B681846B4
:1013600011F034FD0346002B14BF00230123DBB230
:10137000002B00D058E040F67803C1F200039B69CF
:10138000184616F0B5FA0346102BCCBF00230123F4
:10139000DBB2002B06D047F24030C0F6020012F05C
:1013A00017F841E07C68BB689B681033184601F071
:1013B00095FC03469C4234BF00230123DBB2002B83
:1013C00006D047F24830C0F6020012F001F82BE0D8
:1013D000FFF7E0F80346002B04D0BB689B6803F5D9
:1013E000A05304E0BB689B6803F5C8530433BB619A
:1013F0000023FB6113E0FB691B01BA69134404334A
:101400007B617B691A687B689A4200D004E0B86807
:1014100079693A68FFF744FFFB690133FB61BB69F7
:101420001A68FB699A42E6DC2437BD4690BD00BFCE
:1014300080B590B002AFF860B9607A603B60FB683D
:101440005B683B63FB689B68FB62386B396811F033
:10145000C9FA87ED0A0A97ED0A0A10F079F80346EF
:10146000002B06D1D7ED0A7AF5EEC07AF1EE10FA2C
:1014700001D5012300E00023002B0DD0B86A14F041
:1014800023F802460B463968009147F25430C0F603
:10149000020011F09DFFCAE0386810F031FFB0EE95
:1014A000407A7B68D3ED107A67EE277AC7ED097A28
:1014B000D7ED097AF5EEC07AF1EE10FA54BF0023A9
:1014C0000123DBB23B6244F2A830C2F20000396A69
:1014D0000FF0CCFF3B6A002B12D0786A13F0F4FFB8
:1014E00002460B4644F2F030C2F2000047F26C3183
:1014F000C0F6020119F0DCFC4FF000037B6296E0BD
:1015000097ED0A0A10F024F80346002B0BD0B86AB6
:1015100013F0DAFF02460B4647F28430C0F60200B1
:1015200011F056FF83E07B680833FB617B68203352
:10153000BB6197ED097ADFED3F7A67EE277AFDEE22
:10154000E77A17EE902A7B681B78009347F29C306D
:10155000C0F60200F96940F6A113C0F6020306F0D6
:10156000AFFBFB6A03F110027B6848337968D1ED69
:10157000117A386B11461A46B0EE670A11F0AAFAD2
:101580007B689A6CBB689A4220D1386810F0CEFE16
:10159000B0EE407A7B68D3ED147A67EE277AC7ED18
:1015A000057AD7ED057AFDEEE77A17EE902A7B688B
:1015B0001B78009347F2A830C0F60200B96940F6E4
:1015C000D113C0F6020306F07BFB30E044F2A033F7
:1015D000C2F200031B681846796825F069FB0346D0
:1015E000FB74FB7C002B00D021E07B6800225A6555
:1015F00044F2A033C2F200031B68002B11D044F266
:10160000A033C2F200031B687B6302E07B6B5B6D5F
:101610007B637B6B5B6D002BF8D17B6B7A685A65C3
:1016200005E044F2A033C2F200037A681A6038374A
:10163000BD4680BD00007A4480B58EB002AFF86030
:10164000B9607A603B607868FEF78EFF034683F0EE
:101650000103DBB2002B0DD1FB685B6803F5B853C7
:1016600004331B78C3F34003DBB283F00103DBB226
:10167000002B01D0012300E00023002B00D08AE0E2
:1016800044F2A033C2F200031B68FB6258E0FB6A1D
:101690009A6CBB689A4251D144F2A033C2F2000363
:1016A0001A68FB6A9A420BD144F2A033C2F20003DB
:1016B0001B685A6D44F2A033C2F200031A601AE0AC
:1016C00044F2A033C2F200031B687B6202E07B6A33
:1016D0005B6D7B627B6A5B6D002B04D07B6A5A6D0D
:1016E000FB6A9A42F3D17B6A5B6D002B03D0FB6AE5
:1016F0005A6D7B6A5A65FB6A2033FB61786810F08B
:1017000015FEB0EE407AFB6AD3ED147A67EE277AC5
:10171000C7ED067AD7ED067AFDEEE77A17EE902A46
:10172000FB6A1B78009347F2B430C0F60200F969F7
:1017300040F6D113C0F6020306F0C2FABB6AFB62A0
:10174000FB6A002B04D0FB6A5B6DBB62012300E0E7
:101750000023002B9BD100233B6217E03A6A13461B
:101760005B0013445B0108333A6813447B617B6977
:101770009A6BBB689A4200D005E0F868B9687A694C
:101780007B68FFF755FE3B6A01333B623B681A6892
:101790003B6A9A42E2DC3037BD4680BD80B500AF7F
:1017A00044F2F030C2F2000044F2F841C2F200010B
:1017B00019F07EFC80BD00BF90B58FB002AF03462C
:1017C000B9607A60FB737B689B68DB6C5A00BB680E
:1017D0009A4206DC47F24830C0F6020011F0F8FDEC
:1017E000F5E040F67803C1F200039B69184616F055
:1017F0007FF80346102BCCBF00230123DBB2002B64
:1018000006D047F24030C0F6020011F0E1FDDEE004
:101810004BF61C60C2F20000FEF73AFEF862FB6A6B
:10182000002B00D1D3E0FB6AB3F1FF3F08D140F2B7
:10183000551047F2C031C0F602011EF021FFC6E08C
:1018400041F6A053C2F200031B68184611F0D0FA0B
:101850000346002B09D040F25E2047F2D031C0F69B
:101860000201FA6A1EF00CFFB1E04FF48053CEF291
:1018700000035B68BB62FEF7CDFF0246D317DB0FA8
:101880001A4402F00102D31A7B62BB68002B68D1B4
:1018900044F29030C2F2000010F014F90346002B1D
:1018A00007D07B685A687B689B681046194611F020
:1018B00007FA7B685B681846F96A11F093F887EDC0
:1018C000080A97ED080A0FF043FE0346002B06D1E5
:1018D000D7ED087AF5EEC07AF1EE10FA01D50123C2
:1018E00000E00023002B0DD0386A13F0EDFD024616
:1018F0000B46F96A009147F25430C0F6020011F02D
:1019000067FD64E07B681B68184610F06DFDF0EE23
:10191000407AF86AB0EE670A04F0A8F987ED070A82
:10192000F86A10F0EDFCF0EE407A97ED087AC7EE19
:10193000277AC7ED067A7B6859687B689A687B6866
:1019400098687B6A013341F6086404FB03F303449F
:1019500097ED070AD7ED060A084611461A4610F019
:1019600033FEFFF765F802460B4644F2A430C2F29C
:10197000000006F019F84BF61C60C2F2000079680E
:10198000BA68FB6AFFF7E2FC7B689A687B6A0133FE
:1019900041F6086101FB03F313447868B968FA6AF9
:1019A000FFF74AFE4FF48053CEF200035A68BB6A39
:1019B000D31A7B617B69002B09DD7B691A464FEAEC
:1019C000E27344F2F840C2F2000018F059F83437DC
:1019D000BD4690BD80B500AFFFF732FAFFF7DEFEDF
:1019E0001FF0AEFA80BD00BF80B584B000AFF860D4
:1019F000B9607A60BB68002B06D147F2F030C0F6C0
:101A0000020011F0E5FC14E0FB68BA681A60BB68DC
:101A10005A68FB685A60FB685B68002B06D147F286
:101A2000FC30C0F6020011F0D3FC02E0FB687A68DB
:101A30009A601037BD4680BDB0B584B002AF4BF69A
:101A40001C60C2F20000FEF723FD786044F294337C
:101A5000C2F200031B68184610F0C6FC87ED000AAE
:101A6000386813F031FD02460B46CDE9002344F2FD
:101A7000F030C2F2000047F21841C0F602017A6865
:101A800019F016FA44F29433C2F200031B68786826
:101A9000194604F087F910EE103A184613F014FDB9
:101AA00004460D46786897ED000A04F0DFF810EE62
:101AB000103A184613F008FD02460B46CDE9002304
:101AC00044F2F030C2F2000047F23041C0F60201A9
:101AD00022462B4619F0ECF90837BD46B0BD00BFD1
:101AE00080B582B000AF786039607B68002B06D18A
:101AF00047F24440C0F6020011F06AFC65E044F28F
:101B00009430C2F2000079683A68FFF76DFF47F23F
:101B10005040C0F6020041F6D511C0F6000118F0A1
:101B20008FF947F26040C0F6020041F63921C0F655
:101B3000000118F085F944F2F030C2F2000047F2DB
:101B40006C41C0F6020118F0C3FF0FF099F903468B
:101B500044F2F030C2F2000047F28041C0F60201C8
:101B60001A4619F0C5F944F29433C2F200035B68D7
:101B7000184611F02BF90346002B14BF0023012354
:101B8000DBB2002B09D044F2F030C2F2000047F281
:101B90009441C0F6020119F0ABF944F2F840C2F2E8
:101BA000000047F2BC41C0F6020117F041FF41F2CC
:101BB000B970C0F6000047F2CC41C0F6020144F211
:101BC0009432C2F20002FEF767FF0837BD4680BDBF
:101BD00080B500AF44F2A830C2F2000006210FF039
:101BE00077FC0346042BD4BF00230123DBB2184645
:101BF00080BD00BF80B582B000AF786039607B687F
:101C0000012B16D13A684FF6FF739A4211D144F274
:101C10009030C2F200000FF03BFF44F2A430C2F259
:101C2000000005F0FDFD44F2A830C2F200000FF004
:101C3000AFFB7B68002B0AD13A684FF6FF739A42DC
:101C400005D144F2A830C2F200000FF0DDFB0837E6
:101C5000BD4680BD80B500AF01204FF6FF71FFF794
:101C6000C9FF80BD80B500AF00204FF6FF71FFF7C0
:101C7000C1FF80BD00000000000000000000000067
:101C800080B584B000AFF86087ED020AC7ED010AA5
:101C9000F86897ED020A0121012201F06DF897ED35
:101CA000027AD7ED017A77EE277AC7ED027AF868E3
:101CB00097ED020A0121002201F05EF897ED027A09
:101CC000D7ED017A77EE277AC7ED027ABB6807EE87
:101CD000903AB0EE670A1037BD4680BD80B58AB035
:101CE00000AF78607868022100F024FE46F6C91340
:101CF000C4F23E033B6197ED047AF0EE007AC7EE42
:101D0000277AC7ED097A786897ED090A0121002240
:101D100001F032F897ED097AD7ED047A77EE277A59
:101D2000C7ED097A00233B620BE0786897ED090A5A
:101D3000D7ED040AFFF7A4FF87ED090A3B6A0133D8
:101D40003B623B6A162BF0DD97ED047AF0EE087AE1
:101D500067EE277A97ED097A77EE277AC7ED097A49
:101D60007B6AFB60786897ED090A0121012201F086
:101D700003F897ED047AF0EE087A67EE277A97ED8C
:101D8000097A77EE277AC7ED097A786897ED090A1C
:101D90000121002200F0F0FF97ED097AD7ED047AD7
:101DA00077EE277AC7ED097A0023FB610BE07868AC
:101DB00097ED090AD7ED040AFFF762FF87ED090ADC
:101DC000FB690133FB61FB69232BF0DD78689FED34
:101DD000610A0021012200F0CFFF0023BB610BE06C
:101DE000786897ED090AD7ED040AFFF749FF87EDF8
:101DF000090ABB690133BB61BB69142BF0DD97EDA8
:101E0000047AF0EE087A67EE277A97ED097A77EE92
:101E1000277AC7ED097A97ED037ADFED4F7A37EE2F
:101E2000277AD7ED097A77EE677AB0EE670A0FF076
:101E3000F1FBB0EE407ADFED497AB4EEE77AF1EEED
:101E400010FA54BF00230123DBB283F00103DBB29D
:101E5000002B06D047F22050C0F6020011F0B8FA6D
:101E600074E0786897ED090A0121012200F084FFEF
:101E700097ED047AF0EE087A67EE277A97ED097A03
:101E800077EE277AC7ED097A786897ED090A01217C
:101E9000002200F071FF97ED097AD7ED047A77EE12
:101EA000277AC7ED097A00237B610BE0786897ED0C
:101EB000090AD7ED040AFFF7E3FE87ED090A7B69FB
:101EC00001337B617B69202BF0DD97ED047AF0EE26
:101ED000007AC7EE277A9FED227A37EE677AD7ED40
:101EE000097A77EE677AB0EE670A0FF093FBB0EEEF
:101EF000407ADFED1A7AB4EEE77AF1EE10FA54BFC9
:101F000000230123DBB283F00103DBB2002B06D0F8
:101F100047F22050C0F6020011F05AFA16E0786835
:101F200097ED090A0121012200F026FF78689FED54
:101F30000C0A0021002200F01FFF786800F076FCF8
:101F400002467B68DA637B6800221A602837BD4648
:101F500080BD00BF0000BC430000B443CDCCCC3DED
:101F600000003444000000000000000000000000F9
:101F700080B582B000AF78607868022100F0DAFCAA
:101F800078689FED330A01F0BFF87B6800221A627F
:101F90007B6801221A6078689FED2E0A01210122D8
:101FA00000F0EAFE78689FED2C0A0121002200F083
:101FB000E3FE78689FED290A0021012200F0DCFE93
:101FC00078689FED270A0121012200F0D5FE78688C
:101FD0009FED240A0021002200F0CEFE78689FEDDC
:101FE000220A0121002200F0C7FE78689FED1F0A37
:101FF0000121012200F0C0FE78689FED1D0A012139
:10200000002200F0B9FE78689FED1A0A0021012233
:1020100000F0B2FE78689FED180A0121012200F05D
:10202000ABFE78689FED150A0121002200F0A4FEA6
:1020300078689FED130A0021002200F09DFE786869
:1020400000F0F4FB02467B68DA630837BD4680BDCA
:102050003D0AD73F539D4442FD50E442B0055543ED
:102060004EC261439AC58B439C649343B428CD43CD
:1020700076D8EE43D71F10445C991344CD202444F6
:102080000000344480B582B000AF786078689FED7E
:10209000550A01F039F87B6800221A62786802213B
:1020A00000F048FC7868B3EE040A0021012200F039
:1020B00063FE78689FED4C0A0121002200F05CFE6F
:1020C00078689FED4A0A0121012200F055FE7868E8
:1020D0009FED470A0121002200F04EFE78689FED37
:1020E000450A0121012200F047FE78689FED420A6F
:1020F0000121002200F040FE78689FED400A012196
:10210000012200F039FE78689FED3D0A012100228E
:1021100000F032FE78689FED3B0A0121012200F0B9
:102120002BFE78689FED380A0021002200F024FE83
:1021300078689FED360A0021012200F01DFE7868C4
:102140009FED330A0021002200F016FE78689FED13
:10215000310A0021012200F00FFE78689FED2E0A5F
:102160000121002200F008FE78689FED2C0A012171
:10217000012200F001FE78689FED290A012100226A
:1021800000F0FAFD78689FED270A0121012200F096
:10219000F3FD78689FED240A0121002200F0ECFD98
:1021A00078689FED220A0121012200F0E5FD7868A0
:1021B0009FED1F0A0121002200F0DEFD78689FEDEF
:1021C0001D0A0121012200F0D7FD78689FED1A0A4F
:1021D0000021002200F0D0FD7B681622DA63083768
:1021E000BD4680BDAE47E13D0000844200008C4208
:1021F0000000084300000C430000764300007A43CF
:1022000000009E430000A0430000AA430000B44326
:102210000000BE430000C8430000D5430000D74380
:102220000000F8430000FA4300801744008018447F
:102230000000294400002A440000344480B584B0E2
:1022400000AF78607868022100F074FB4FF0000363
:10225000C4F2A003FB6047F2C963C3F6BE53BB6080
:102260004FF00003C4F23433FB6097ED027ADFEDE8
:102270003F7A67EE277A97ED037A77EE677A786888
:10228000B0EE670A0021012200F076FD786897ED34
:10229000030A0021002200F06FFD97ED037ADFEDC5
:1022A000347A77EE277AC7ED037A97ED027ADFED7D
:1022B0002F7A67EE277A97ED037A77EE677A786858
:1022C000B0EE670A0021012200F056FD786897ED14
:1022D000030A0021002200F04FFD97ED037ADFEDA5
:1022E000247A77EE277AC7ED037A97ED027ADFED4D
:1022F0001F7A67EE277A97ED037A77EE677A786828
:10230000B0EE670A0021012200F036FD786897EDF3
:10231000030A0021002200F02FFD97ED037ADFED84
:10232000147A77EE277AC7ED037A97ED027ADFED1C
:102330000F7A67EE277A97ED037A77EE677A7868F7
:10234000B0EE670A0021012200F016FD786897EDD3
:10235000030A0021002200F00FFD7B680822DA63E7
:102360007B6800221A601037BD4680BD00003444EF
:1023700000003443000000000000000000000000E6
:1023800080B584B000AF78607868022100F0D2FA9E
:1023900078689FEDDB0A00F0B7FE7B6800221A62C6
:1023A000A023FB607B6801221A64FB68783B07EE80
:1023B000103AF8EEC77A7868B0EE670A0121012278
:1023C00000F0DAFCFB68743B07EE103AF8EEC77ACF
:1023D0007868B0EE670A0121002200F0CDFCFB68AE
:1023E000683B07EE103AF8EEC77A7868B0EE670AF5
:1023F0000121012200F0C0FCFB68643B07EE103AAB
:10240000F8EEC77A7868B0EE670A0121002200F082
:10241000B3FCFB684D3B07EE103AF8EEC77A7868DC
:10242000B0EE670A0121012200F0A6FCFB68483BE0
:1024300007EE103AF8EEC77A7868B0EE670A012125
:10244000002200F099FCFB68313B07EE103AF8EEF1
:10245000C77A7868B0EE670A0121012200F08CFC8F
:10246000FB682C3B07EE103AF8EEC77A7868B0EEBE
:10247000670A0121002200F07FFCFB6807EE103A9A
:10248000F8EEC77A7868B0EE670A0021002200F003
:1024900073FCFB68143307EE103AF8EEC77A7868DD
:1024A000B0EE670A0121012200F066FCFB683C33B4
:1024B00007EE103AF8EEC77A7868B0EE670A0121A5
:1024C000002200F059FCFB684B3307EE103AF8EE9F
:1024D000C77A7868B0EE670A0121012200F04CFC4F
:1024E000FB684F3307EE103AF8EEC77A7868B0EE23
:1024F000670A0121002200F03FFCFB68653307EE0C
:10250000103AF8EEC77A7868B0EE670A0121012226
:1025100000F032FCFB686A3307EE103AF8EEC77A37
:102520007868B0EE670A0121002200F025FCFB6804
:10253000823307EE103AF8EEC77A7868B0EE670A91
:102540000121012200F018FCFB68873307EE103AE6
:10255000F8EEC77A7868B0EE670A0121002200F031
:102560000BFCFB68C83307EE103AF8EEC77A7868C0
:10257000B0EE670A0021012200F0FEFBFB68EC339D
:1025800007EE103AF8EEC77A7868B0EE670A0121D4
:10259000012200F0F1FBFB68EF3307EE103AF8EE92
:1025A000C77A7868B0EE670A0121002200F0E4FBE8
:1025B000FB68FA3307EE103AF8EEC77A7868B0EEA7
:1025C000670A0121012200F0D7FBFB68FF3307EE09
:1025D000103AF8EEC77A7868B0EE670A0121002257
:1025E00000F0CAFBFB6803F2151307EE103AF8EE91
:1025F000C77A7868B0EE670A0121012200F0BCFBBF
:10260000FB6803F58D7307EE103AF8EEC77A786829
:10261000B0EE670A0121002200F0AEFBFB6803F276
:10262000311307EE103AF8EEC77A7868B0EE670A11
:102630000121012200F0A0FBFB6803F59B7307EE6C
:10264000103AF8EEC77A7868B0EE670A01210022E6
:1026500000F092FBFB6803F5BB7307EE103AF8EE4F
:10266000C77A7868B0EE670A0121012200F084FB86
:10267000FB6803F28B1307EE103AF8EEC77A78681E
:10268000B0EE670A0021002200F076FBFB6803F53C
:10269000D17307EE103AF8EEC77A7868B0EE670AA1
:1026A0000121002200F068FBFB6803F5DA7307EEF6
:1026B000103AF8EEC77A7868B0EE670A0121012275
:1026C00000F05AFBFB6803F2B91307EE103AF8EE7C
:1026D000C77A7868B0EE670A0121002200F04CFB4F
:1026E000FB6803F2CF1307EE103AF8EEC77A78686A
:1026F000B0EE670A0121012200F03EFBFB6801E019
:10270000EC51383F03F5EA7307EE103AF8EEC77A5A
:102710007868B0EE670A0121002200F02DFBFB680B
:1027200003F5F67307EE103AF8EEC77A7868B0EE64
:10273000670A0121012200F01FFBFB6803F2F1137D
:1027400007EE103AF8EEC77A7868B0EE670A012112
:10275000002200F011FBFB6803F50C7307EE103A42
:10276000F8EEC77A7868B0EE670A0021012200F01F
:1027700003FB7B682422DA631037BD4680BD00BFAF
:10278000B0B584B000AF78607B6803F6B83302243C
:102790001D4604E028460FF0ABF90435013CB4F1C6
:1027A000FF3FF7D10023FB6013E0FB6803F2EE2349
:1027B0009B007A681A44FB684FF47A7101FB03F3BB
:1027C00079680B44104619460FF0AEF9FB680133E7
:1027D000FB60FB68022BE8DD7B6818461037BD46BE
:1027E000B0BD00BF80B582B000AF78607B6803F1F8
:1027F00030027B6803F580531046194600220FF023
:10280000ADF97B6803F234431846FFF7B9FF7868E7
:10281000002100F08FF87B6803F6EC727B685A6346
:102820007B6818460837BD4680BD00BF80B483B0C2
:1028300000AF78607B68D3F8F83F18460C37BD4688
:102840005DF8047B704700BF80B483B000AF786050
:102850007B68D3F8FC3F18460C37BD465DF8047B17
:10286000704700BF80B582B000AF7860396078688B
:10287000396801F0ABFB03467868194600F004F8AC
:102880000837BD4680BD00BF80B586B000AF786018
:1028900039607B683A68C3F8FC2F7B6803F59F5367
:1028A0000C331B681846796810F0ECF838617868CA
:1028B000396800F02BFA87ED030A00237B6131E0D1
:1028C0007B69002B09D17A687B6912339B00134422
:1028D00004334FF000021A6021E03A687B69134428
:1028E0003A6993FBF2F2396901FB02F29B1A7868AC
:1028F000194600F00BFAB0EE407AD7ED037A77EE86
:10290000677AB0EE670A0FF03BFDF0EE407A7A6826
:102910007B6912339B0013440433C3ED007A7B6957
:1029200001337B617A693B699A42C9DB1837BD463E
:1029300080BD00BF80B582B000AF786039607B6831
:1029400003F59F530C333A681A607B680022C3F882
:10295000F82F7B680022DA637B680022C3F8FC2F23
:102960007B684033184600210C2214F0D1F97B68B3
:1029700003F58053184600214FF47A7214F0C8F919
:102980007B682433184600210C2214F0C1F97B68BF
:10299000303318460FF004F97B6803F59F53083372
:1029A0004FF000021A600837BD4680BD80B485B084
:1029B00000AFF860B9607A60FB685A68BB689B003A
:1029C00013441A687B689B0013441B68184614372D
:1029D000BD465DF8047B704780B487B000AFF860F7
:1029E00087ED020A79607B68013B7B6113E0FB683D
:1029F0009A687B699B00134493ED007AD7ED027AC5
:102A0000B4EEE77AF1EE10FA02D57B69013306E005
:102A10007B69013B7B617B69002BE8DA0023184668
:102A20001C37BD465DF8047B704700BF80B586B09B
:102A300000AFF86087ED020A796000237B6114E043
:102A4000FB689A687B699B001344D3ED007AB0EE73
:102A5000670AD7ED020A0EF02FFF0346002B01D0C4
:102A60007B6908E07B6901337B617A697B689A4204
:102A7000E6DB4FF0FF3318461837BD4680BD00BF78
:102A800080B485B000AFF860B96087ED010AFB68DB
:102A90009A68BB689B0013447A681A601437BD4675
:102AA0005DF8047B704700BF80B582B000AF7860EE
:102AB0007B6800221A607B6800221A7179684FF0E7
:102AC00000024FF00003C1E9042379684FF00002CF
:102AD0004FF00003C1E902237B6800221A6778687F
:102AE00000F0DCF87B683033184600210C2214F02B
:102AF0000FF979684FF000024FF00003C1E91A2383
:102B00007B68012283F874207B6818460837BD462D
:102B100080BD00BF80B483B000AF78607B68DB6BA2
:102B200018460C37BD465DF8047B704780B483B00F
:102B300000AF78607B68D3E91A23104619460C373A
:102B4000BD465DF8047B704780B483B000AF786009
:102B50007B68D3E91A017B68DB6B1A464FEAE273A4
:102B6000121843EB0103104619460C37BD465DF8B9
:102B7000047B704780B584B000AFF860B960C7E9E6
:102B80000023FB681B68002B03D0FB681B68F868F8
:102B90009847FB6803F12402FB6818331046194676
:102BA0000C2214F05DF8FB68D3E92023D7E900017B
:102BB000821A61EB0303F968C1E91E23F968D7E9BA
:102BC0000023C1E92023F86800F068F8FB681B6F58
:102BD0005A1CFB681A67FB68D3E91A01BB681A46DE
:102BE0004FEAE273121843EB0103F968C1E91A23B3
:102BF0001037BD4680BD00BF80B483B000AF7860A1
:102C00007B681B6F18460C37BD465DF8047B704728
:102C100080B487B000AFF860C7E900230B46FB72B1
:102C2000FB7AFA680A33DB001344D3E90023C7E9CF
:102C30000423D7E9042352EA03011BD0FA7AF97A74
:102C4000FB68063153F82130194638683B69C31ACE
:102C50000B441946FB68063243F82210FB7AFA68E7
:102C60000A33DB00D1184FF000024FF00003C1E936
:102C7000002308E0FB7AFA680A33DB00D118D7E9B1
:102C80000023C1E90023FB68DB6B5A1CFB68DA6395
:102C90001C37BD465DF8047B704700BF80B582B02D
:102CA00000AF78607B684033184600210C2214F096
:102CB0002FF87B68503318460021182214F028F8AA
:102CC0007B681833184600210C2214F021F87B6829
:102CD0000022DA630837BD4680BD00BF80B483B0F0
:102CE00000AF78607B6803F59F530C331B68022BA1
:102CF00002D17B68DB6B02E07B68DB6B5B00184614
:102D00000C37BD465DF8047B704700BF80B584B0CA
:102D100000AF786039607B6803F59F530C331B6804
:102D2000022B06D17868396800F096F9F0EE407A07
:102D30001BE07B68D3F8F83FFB603A68FB689A4277
:102D400006DA7868396800F087F9F0EE407A0CE02E
:102D50003A68FB68D31A7868194600F07DF9B0EE3E
:102D6000407ADFED047A77EE277AB0EE670A103703
:102D7000BD4680BD0000B443B0B58EB002AFF86070
:102D800087ED020A13460A46FA71BB71FB6803F528
:102D90009F530C331B68002B06D147F24050C0F6FE
:102DA000020010F015FB3CE197ED027ADFED9E7A10
:102DB000C7EE277AC7ED027AFA79F96802F10803BB
:102DC0009B000B445B68591CF86802F108039B00E8
:102DD00003445960D7ED027AF5EEC07AF1EE10FAAD
:102DE000D4BF00230123DBB283F00103DBB2002B4D
:102DF00006D047F25850C0F6020010F0E9FA10E190
:102E0000FB68D3F8F83F002B26DDFB6803F59F53E2
:102E1000083393ED007AD7ED027AB4EEE77AF1EE5B
:102E200010FA19DBB86812F04FFB04460D46FB6838
:102E300003F59F5308331B68184612F045FB024602
:102E40000B46CDE9002347F27450C0F6020022463B
:102E50002B4610F0BDFAE4E0FB6803F59F530833FE
:102E6000BA681A60FB68D3F8F83F002B40D1FB68C2
:102E70000122C3F8F82F0023FB6225E0FB685A6BA0
:102E8000FB6A9B001344FB61FB69002B06D147F2F0
:102E90009450C0F6020010F09BFAC2E0FB691B6878
:102EA000002B06D147F2A450C0F6020010F090FAB1
:102EB000B7E0FB691B68FA68F96A103152F8212003
:102EC0001A60FB6A0133FB62FB6A022BD6DDFB68EA
:102ED00030331846002197ED020AFFF7D1FDFB6859
:102EE0005A6BFB799B0013441B68BA791A6098E00F
:102EF000FB6803F13002FB68D3F8F83F104697ED0A
:102F0000020A1946FFF792FDB861BB69B3F1FF3FB2
:102F100006D047F2BC50C0F6020010F059FA80E02B
:102F2000FB6803F13002FB68D3F8F83F104697EDD9
:102F3000020A1946FFF750FD7861FB68D3F8F83FA5
:102F4000013BBB6231E000237B6215E0FB685A6BFA
:102F50007B6A9B0013441A68BB6A01339B00D41838
:102F6000FB6830331846796A7A69FFF71FFD03461C
:102F700023607B6A01337B627B6A022BE6DDFB68A0
:102F800003F13005BB6A5C1CFB6830331846B96A34
:102F90000EF012FEF0EE407A28462146B0EE670AA7
:102FA000FFF76EFDBB6A013BBB62BA6A7B699A425E
:102FB000C9DAFB68D3F8F83F5A1CFB68C3F8F82F4E
:102FC00000233B6217E0FB685A6B3B6A9B0013448B
:102FD0001A687B699B00D418FB6803F130027B6997
:102FE000013B1046396A1A46FFF7E0FC03462360AE
:102FF0003B6A01333B623B6A022BE4DDFB68303302
:103000001846796997ED020AFFF73AFDFB685A6B9B
:10301000FB799B0013441A687B699B001344BA79BF
:103020001A603037BD46B0BD0000344480B483B070
:1030300000AF78607B6803F59F530C331B68022B4D
:1030400002D14FF4347301E04FF4B47318460C37D7
:10305000BD465DF8047B704780B52DED028B82B0D4
:1030600000AF786039607868FFF7E0FF034607EE4D
:10307000903AB8EEE78A7B683033184639680EF02C
:103080009BFDF0EE407A68EE277AB0EE670A0837CB
:10309000BD46BDEC028B80BD80B582B000AF7860CC
:1030A00039607B689B68386819460EF099FD0837CF
:1030B000BD4680BDB0B584B000AFF860B9607A603D
:1030C0003B607B68002B0CBF00230123DBB21A4658
:1030D000FB681A60FB68BA685A60FB687A689A6095
:1030E000FB6801221A62FB685D68FB689C683868AF
:1030F00003F0F4FE0346F8682946224600F0FAFC85
:103100001037BD46B0BD00BF80B483B000AF78605B
:1031100087ED000A7B6801221A6097ED007AF6EECF
:10312000087A67EE277A7B68C3ED067A97ED007A16
:10313000F7EE047A67EE277A7B68C3ED077A0C37DF
:10314000BD465DF8047B704780B582B000AF786003
:1031500087ED000A786897ED000A01210122FFF748
:103160000BFE97ED007AF2EE0E7A77EE277AC7ED36
:10317000007A786897ED000A01210022FFF7FCFD34
:1031800097ED007AF2EE0E7A77EE277AC7ED007AA5
:103190003B6807EE903AB0EE670A0837BD4680BD3F
:1031A00080B582B000AF786087ED000A97ED007AB5
:1031B000F1EE0E7A77EE277AC7ED007A786897ED10
:1031C000000A02210122FFF7D7FD97ED007AF1EE08
:1031D0000E7A77EE277AC7ED007A786897ED000AC5
:1031E00002210022FFF7C8FD97ED007AF2EE0E7A79
:1031F00077EE277AC7ED007A3B6807EE903AB0EE9B
:10320000670A0837BD4680BD80B584B000AF7860DE
:1032100078680221FFF78EFB7B6801225A644FF029
:103220000003FB60786897ED030AFFF7B9FF87EDAD
:10323000030A786897ED030AFFF7B2FF87ED030AE8
:10324000786897ED030AFFF7ABFF87ED030A78680C
:103250009FED830A01210022FFF78EFD4FF000034E
:10326000C4F2B423FB60786897ED030AFFF798FF78
:1032700087ED030A786897ED030AFFF791FF87ED62
:10328000030A786897ED030AFFF78AFF87ED030AC0
:1032900078689FED740A01210122FFF76DFD4FF060
:1032A0000003C4F23433FB60786897ED030AFFF73C
:1032B00077FF87ED030A786897ED030AFFF770FF41
:1032C00087ED030A786897ED030AFFF769FF87ED3A
:1032D000030A78689FED640A01210022FFF74CFD84
:1032E0004FF00003C4F28733FB60786897ED030A60
:1032F000FFF756FF87ED030A786897ED030AFFF79B
:103300004FFF87ED030A786897ED030AFFF748FF40
:1033100087ED030A78689FED550A00210122FFF727
:103320002BFD78689FED520A01210122FFF724FD51
:103330004FF00003C4F2B433FB60786897ED030AE2
:10334000FFF72EFF87ED030A786897ED030AFFF772
:1033500027FF87ED030A786897ED030AFFF720FF40
:1033600087ED030A78689FED430A01210022FFF7E9
:1033700003FD4FF00003C4F2E133FB60786897ED82
:10338000030AFFF70DFF87ED030A786897ED030A3C
:10339000FFF706FF87ED030A786897ED030AFFF74A
:1033A000FFFE87ED030A78689FED330A01210122B1
:1033B000FFF7E2FC4FF00003C4F20743FB607868BC
:1033C00097ED030AFFF7ECFE87ED030A786897EDA7
:1033D000030AFFF7E5FE87ED030A786897ED030A15
:1033E000FFF7DEFE87ED030A78689FED240A0121CE
:1033F0000022FFF7C1FC4FF40043C4F21D43FB6001
:10340000786897ED030AFFF7CBFE87ED030A78682B
:1034100097ED030AFFF7C4FE87ED030A786897ED7E
:10342000030AFFF7BDFE87ED030A78689FED140AD3
:1034300000210022FFF7A0FC78689FED120A01210D
:103440000122FFF799FC7B6800221A607868FFF779
:10345000EDF902467B68DA631037BD4680BD00BFD8
:103460000000B44200003443000087430040B043F2
:103470000000B4430000E1430000074400801D4405
:10348000002032440000344480B586B000AF78603C
:103490000B46FB7078680221FFF74CFA4FF00003EF
:1034A000C4F2A0037B6147F6ED43C4F20523FB6041
:1034B0007B6800221A60786897ED050AFFF744FEE2
:1034C00087ED050AFB78002B0CD097ED057AF1EE1D
:1034D0000E7A77EE677A7868B0EE670A02210122E9
:1034E000FFF74AFC786897ED050AFFF72DFE87ED98
:1034F000050A786897ED050AFFF726FE87ED050AAD
:10350000FB78002B0CD097ED057AF1EE0E7A77EE72
:10351000677A7868B0EE670A02210022FFF72CFC78
:10352000786897ED050AFFF70FFE87ED050A7868C2
:1035300097ED050AFFF708FE87ED050A9FED5C7A17
:10354000D7ED037A77EE677A7868B0EE670A0021E4
:103550000122FFF711FC786897ED050AFFF7F4FDEB
:1035600087ED050A78689FED520A00210022FFF7D7
:1035700003FC786897ED050AFFF7E6FD87ED050A7D
:10358000786897ED050AFFF7DFFD87ED050A786893
:1035900097ED050AFFF7D8FD87ED050A786897EDE6
:1035A000050AFFF7D1FD87ED050A786897ED050A52
:1035B000FFF7CAFD87ED050A9FED3E7AD7ED037A46
:1035C00077EE677A7868B0EE670A00210122FFF78C
:1035D000D3FB786897ED050AFFF7B6FD87ED050A7E
:1035E00078689FED340A00210022FFF7C5FB032312
:1035F0003B6150E0786897ED050AFFF7A5FD87ED80
:10360000050A786897ED050AFFF79EFD87ED050A24
:10361000786897ED050AFFF797FD87ED050A78684A
:1036200097ED050AFFF790FD87ED050A786897ED9D
:10363000050AFFF789FD87ED050A3B6907EE903A19
:10364000B8EEE77ADFED1A7A27EE277AD7ED037A1C
:1036500077EE677A7868B0EE670A00210122FFF7FB
:103660008BFB786897ED050AFFF76EFD87ED050A7D
:103670003B6907EE903AB8EEE77ADFED0D7A67EE38
:10368000277A7868B0EE670A00210022FFF774FB02
:103690003B6901333B613B69042BABDD7868FFF785
:1036A000C5F802467B68DA631837BD4680BD00BFA7
:1036B000000034430000B44300000000000000009C
:1036C00080B500AF45F21830C2F2000006210DF0BF
:1036D000FFFE0346042BD4BF00230123DBB21846B0
:1036E00080BD00BF80B52DED028B84B000AFF860C7
:1036F000B9607A60BB681B68002B01D1002332E0FF
:103700007B6807EE903AB8EEE78AFB68D3E90223BC
:103710001046194612F00CFB07EE100ABB68D3EDF9
:10372000067A67EE277AB4EEE78AF1EE10FA19DD31
:103730007B6807EE903AB8EEE78AFB68D3E902238C
:103740001046194612F0F4FA07EE100ABB68D3EDE2
:10375000077A67EE277AB4EEE78AF1EE10FA01D520
:10376000012300E0002318461037BD46BDEC028B54
:1037700080BD00BF80B582B000AF786039603B6823
:103780001B68002B01D0002314E07B681B7983F0B9
:103790000103DBB2002B01D001230BE07868FFF7B7
:1037A000B9F902463B68DB6B013B9A42B4BF002388
:1037B0000123DBB218460837BD4680BD80B52DED2C
:1037C000028B84B000AF786039607A683B68083358
:1037D0009B0013445B6807EE103AF8EEC77AC7ED1A
:1037E000037A97ED037ADFED0B7A27EE278A7B6861
:1037F000D3E91E231046194612F09AFA07EE900AF2
:10380000C8EE277AB0EE670A1037BD46BDEC028BD2
:1038100080BD00BF0000C842B0B58EB004AFF860F4
:10382000B9607A60FB70FB78052B06D947F2E0504F
:10383000C0F602000FF0CCFDD1E0FA7840F6084364
:10384000C2F200039B5C87F8273097F82730FA68AC
:1038500003F1100152F82120511CFA68103342F88C
:103860002310BB681B6A002B02D0FB78012B06D10A
:10387000BB681B6A002B04D1FB78002B01D001230D
:1038800000E000233B623B6A002B08D097F827300A
:10389000F8681946D7E90E23FFF7BAF99FE0FB68ED
:1038A00093F87430002B04D04FF000024FF0000367
:1038B00007E0FB68D3E90423D7E90E01821A61EB24
:1038C0000303C7E90623FB68002283F87420D7E9C5
:1038D0000623002A73F1000106DA47F2F450C0F61D
:1038E00002000FF075FD7AE0F868B968FFF742FF53
:1038F0000346002B08D1BB69F868B9681A46FFF780
:10390000F1FE0346002B01D0012300E00023002B31
:1039100053D0FB681A6CBB685B6A9A420BD1FB6898
:103920005A6CBB689B6A9A4205D1FB689A6CBB686B
:10393000DB6A9A4201D0012300E00023FB75FB7D86
:1039400045F21830C2F2000019460DF08FFDFFF766
:10395000B7FE0346002B0CBF00230123DBB2002B74
:1039600017D0BB685A6ABB689B6AB968CD6AF968A8
:103970000C6CF968486CF968896C009501940290A8
:10398000039140F25E2047F21061C0F602011CF084
:1039900077FEFB6801221A7197F82730F8681946FC
:1039A000D7E90E23FFF734F9BB68DB6BF8681946DB
:1039B000D7E90E23FFF7DEF807E097F82730F8681D
:1039C0001946D7E90E23FFF723F9D7E90623F9684B
:1039D000C1E90223F968D7E90E23C1E90423283796
:1039E000BD46B0BD80B58AB000AFF860B9607A60FE
:1039F0003B60FB68002B06D147F24860C0F602002E
:103A00000FF0E6FC71E0F8683968FEF793FF4FF0BD
:103A10007C533B6200237B6239E0BB6806EE903A40
:103A2000F8EEE67A9FED327AC7EE277A7B6A07EEE8
:103A3000103AF8EEC76A97ED087A36EE877A67EEA5
:103A4000877AC7ED077ABB6806EE903AF8EEE67A19
:103A50009FED277AC7EE277A7B6A013306EE903A0C
:103A6000B8EEE67A67EE877AC7ED067AF86897EDE2
:103A7000070A00210122FFF77FF9F86897ED060A8F
:103A800000210022FFF778F97B6A01337B62BA6874
:103A90007B68D31A5A1E7B6A9A42BEDCBB6807EE6B
:103AA000103AF8EEC77A9FED127AC7EE277ABA6815
:103AB0007B68D31A013B07EE103AF8EEC76A97ED20
:103AC000087A36EE877A67EE877AC7ED057AF86866
:103AD00097ED050A00210122FFF74EF9F8689FEDE6
:103AE000040A00210022FFF747F92837BD4680BDB0
:103AF0000000344490B585B000AFF860B9607A60DA
:103B00003B60BB68002B06DC47F26060C0F6020039
:103B10000FF05EFC1CE0FB68BA685A60FB687A68CC
:103B20009A60F868B9687A683B68FFF75BFFBA6823
:103B30007B68D31A5A00FB68DA63FB6803F1300430
:103B4000F868FEF773FE034620461946FFF7A4FA0D
:103B50001437BD4690BD00BF80B582B000AF78601D
:103B600039603B6800221A6038680221FEF7E2FEE5
:103B70003B680A22DA6338689FED230A012101229B
:103B8000FFF7FAF838689FED210A01210022FFF7BC
:103B9000F3F838689FED1E0A01210122FFF7ECF8C7
:103BA00038689FED1C0A01210022FFF7E5F838680C
:103BB0009FED190A00210122FFF7DEF838689FED1A
:103BC000170A01210122FFF7D7F838689FED140A80
:103BD00001210022FFF7D0F838689FED120A012179
:103BE0000122FFF7C9F838689FED0F0A0121002272
:103BF000FFF7C2F838689FED0D0A00210022FFF799
:103C0000BBF80837BD4680BDEEFC5642CDCCF34232
:103C10008FC268431F4596430000B443ACEBCC43CE
:103C20004453EF43E1021344EC4124440000344484
:103C3000B0B586B000AFF860B9607A60F86847F256
:103C40007861C0F6020117F033F9BB6803F58063B1
:103C50007B617B6810333B613869B0EE000AFFF787
:103C600053FA3B6901221A627B691B680D2B75D8D8
:103C700001A252F823F000BFB13C0008EF3C00085D
:103C8000E73C0008D73C0008DF3C0008F93C00088E
:103C90000B3D0008033D0008133D00082B3D0008C4
:103CA000433D0008553D0008393D00084D3D0008E2
:103CB000BB68D3F804247B681A617B699D687B69C3
:103CC000DC68B86803F00AF90346386929462246D9
:103CD000FFF710FF60E03869FEF74AF95CE03869E9
:103CE000FEF7D0F958E03869FEF74AFB54E07869EE
:103CF0003969FFF731FF4FE07869396900F008FB57
:103D00004AE03869FEF79AFA46E03869FDF7E6FFBF
:103D100042E038693C210222BB68FFF7CBF93869E1
:103D2000B0EE040AFFF7F0F936E0386924210122E9
:103D3000BB68FFF7BFF92FE038690021FFF7A4FB4C
:103D40002AE038690121FFF79FFB25E03869FFF77A
:103D50005BFA21E0386900F033FA1DE07B691B68EB
:103D600047F29460C0F6020019460FF031FB7B6801
:103D7000DC6C7B6810331846FEF758FD03469C4206
:103D80000CBF00230123DBB2002B05D047F2C46037
:103D9000C0F602000FF01CFB1837BD46B0BD00BFD7
:103DA00080B483B000AF78607B6800221A707B68B3
:103DB00000225A707B6800229A707B6818460C3784
:103DC000BD465DF8047B704790B52DED028B8DB03C
:103DD00002AFF860B9607A603B607868FEF726FD54
:103DE00002463B6893FBF2F102FB01F29B1A7B62F5
:103DF0007868FEF71BFD03463A6892FBF3F33B62DB
:103E00003B6A07EE903AB8EEE78A7B683033184693
:103E1000796A0DF0D1FEF0EE407A38EE277ADFEDC8
:103E2000467A67EE277AFDEEE77A17EE903AFB6165
:103E30007B683033184600217A6AFEF7B7FD0346E7
:103E4000002B0CBF00230123FB767B683033184620
:103E500001217A6AFEF7AAFD0346002B0CBF00235E
:103E60000123BB767B683033184602217A6AFEF75D
:103E70009DFD0346002B0CBF002301237B76FB68CE
:103E80001B78FA7E9A4217D0FB68FA7E1A70FB689C
:103E90001B78002B01D0012300E000233B76FB6957
:103EA0001A464FEAE2733C7ECDE90023B868796890
:103EB0003A6C2346FFF7B0FCFB685B78BA7E9A4207
:103EC00017D0FB68BA7E5A70FB685B78002B01D074
:103ED000032300E00223FB75FB691A464FEAE273F5
:103EE000FC7DCDE90023B86879683A6C2346FFF77A
:103EF00093FCFB689B787A7E9A4217D0FB687A7EA7
:103F00009A70FB689B78002B01D0052300E0042306
:103F1000BB75FB691A464FEAE273BC7DCDE900230D
:103F2000B86879683A6C2346FFF776FC2C37BD46B3
:103F3000BDEC028B90BD00BF0050C34780B485B07C
:103F400000AF78600023FB600CE07B68FA68063203
:103F500053F822107B68FA680C3243F82210FB6891
:103F60000133FB60FB68022BEFDD1437BD465DF8C3
:103F7000047B704780B588B002AFF860B9607A60A2
:103F80003B6000237B6110E07B680093F868396830
:103F9000BA687B69FFF718FF3B681B79002B01D0DB
:103FA0007B690EE07B6901337B617B69B3F57A7FC6
:103FB000EADB47F2F060C0F602000FF009FA4FF0BA
:103FC000FF3318461837BD4680BD00BF80B5AAB084
:103FD00002AF7860396007F108031846FEF764FD08
:103FE00045F21830C2F200000DF066FA07F19003B6
:103FF0001846FFF7D5FE07F1900207F108031046B7
:1040000079683A68FFF7B6FFC7F89400D7F894309C
:10401000B3F1FF3F02D1D7F894308DE007F10803E8
:104020001846FEF7E9FD0346012B0CBF00230123D0
:10403000DBB2002B08D047F21470C0F602000FF07C
:10404000C7F94FF0FF3377E043F63D73C0F6000346
:10405000BB60D7F894300133C7F89C3011E0D7F833
:104060009C3007F1900107F108023868009008467B
:1040700011467A68FFF7A8FED7F89C300133C7F8DD
:104080009C307868FEF7D2FB03465B001A46D7F8EF
:1040900094301A44D7F89C309A4234BF002301234D
:1040A000DBB2002BDBD107F108031846FEF7A4FDB5
:1040B0000346012BCCBF00230123DBB2002B08D029
:1040C00047F22C70C0F602000FF082F94FF0FF3378
:1040D00032E00023C7F898301EE0D7F898300C3350
:1040E0009B0007F1A002134453F8983C07EE903A66
:1040F000B8EEE77ADFED127AC7EE277A7A68D7F85A
:10410000983002339B0013440433C3ED007AD7F890
:1041100098300133C7F89830D7F89830022BDCDD9F
:104120007868FEF783FB03461A46D7F89430B3FB52
:10413000F2F102FB01F29B1A1846A037BD4680BD82
:104140000050C34780B400AFBD465DF8047B7047A4
:1041500080B582B000AF786039607B68012B0AD1EE
:104160003A684FF6FF739A4205D145F21830C2F211
:1041700000000DF00DF97B68002B0AD13A684FF66C
:10418000FF739A4205D145F21830C2F200000DF0DB
:104190003BF90837BD4680BD80B500AF01204FF622
:1041A000FF71FFF7D5FF80BD80B500AF00204FF64F
:1041B000FF71FFF7CDFF80BD000000000000000090
:1041C00080B584B000AF786078680221FEF7B2FB5A
:1041D0007B6800221A6278689FED430AFEF794FF1D
:1041E0004623FB6078689FED410A00210122FEF71B
:1041F000C3FDFB6807EE103AF8EEC77A9FED3C7AF4
:1042000077EE677A7868B0EE670A01210122FEF73F
:10421000B3FD78689FED360A01210022FEF7ACFD60
:1042200078689FED340A00210022FEF7A5FDFB68A7
:1042300007EE103AF8EEC77A9FED2F7A77EE677A9D
:104240007868B0EE670A01210122FEF795FD7868D3
:104250009FED290A01210022FEF78EFD78689FED6F
:10426000270A00210122FEF787FDFB6807EE103ABE
:10427000F8EEC77A9FED227A77EE677A7868B0EE2B
:10428000670A01210122FEF777FD78689FED1D0A7C
:1042900000210022FEF770FD78689FED190A0121C8
:1042A0000022FEF769FDFB6807EE103AF8EEC77AC8
:1042B0009FED157A77EE677A7868B0EE670A01218C
:1042C0000122FEF759FD78689FED0F0A01210022B7
:1042D000FEF752FD7868FEF7A9FA02467B68DA63BA
:1042E0001037BD4680BD00BF2653D53F0000584261
:1042F0000000344300006A430000B4430000CF4391
:10430000000007440000FC430000344400000000AB
:1043100080B584B000AF7860396038680221FEF75C
:1043200009FB4FF00003C4F22013FB603B680E2230
:10433000DA639FED477AD7ED037A77EE677A3868CC
:10434000B0EE670A00210122FEF716FD38689FEDE6
:10435000400A00210022FEF70FFD9FED3E7AD7EDC7
:10436000037A77EE677A3868B0EE670A0021012297
:10437000FEF702FD38689FED370A00210022FEF7A4
:10438000FBFC9FED357AD7ED037A77EE677A3868D4
:10439000B0EE670A00210122FEF7EEFC38689FEDBF
:1043A0002E0A00210022FEF7E7FC9FED2C7AD7EDC4
:1043B000037A77EE677A3868B0EE670A0021012247
:1043C000FEF7DAFC38689FED250A00210022FEF78F
:1043D000D3FC9FED237AD7ED037A77EE677A3868BE
:1043E000B0EE670A00210122FEF7C6FC38689FED97
:1043F0001C0A00210022FEF7BFFC9FED1A7AD7EDC0
:10440000037A77EE677A3868B0EE670A00210122F6
:10441000FEF7B2FC38689FED130A00210022FEF778
:10442000ABFC9FED117AD7ED037A77EE677A3868A7
:10443000B0EE670A00210122FEF79EFC38689FED6E
:104440000A0A00210022FEF797FC1037BD4680BD06
:104450000000F042000070430000B4430000F0434D
:104460000000164400002F44000034440000000007
:1044700080B483B000AF78607B6800221A707B68DC
:1044800000225A707B6800229A707B6818460C37AD
:10449000BD465DF8047B704780B588B000AFF8601A
:1044A000B9607A60BB689B681A687B689B0013449C
:1044B0001B68FB61BB689B6804331A687B689B00C0
:1044C00013441B68BB61BB689B6808331A687B6830
:1044D0009B0013441B687B61FB681B781A46FB69D1
:1044E0009A4211D0FB69002B0CBF00230123DAB2E2
:1044F000FB681A70FB681B78002B01D0012300E0D9
:1045000000231846FCF7DAFAFB685B781A46BB69A9
:104510009A4211D0BB69002B0CBF00230123DAB2F1
:10452000FB685A70FB685B78002B01D0032300E026
:1045300002231846FCF7C2FAFB689B781A467B698F
:104540009A4211D07B69002B0CBF00230123DAB201
:10455000FB689A70FB689B78002B01D0052300E074
:1045600004231846FCF7AAFA2037BD4680BD00BFD9
:1045700080B582B000AF7860396041F6A053C2F2D6
:1045800000031B68B3F84831002B07D045F26030B8
:10459000C2F2000079683A68FFF77EFF78683968F0
:1045A00005F0BEFF0837BD4680BD00BF80B500AF37
:1045B00041F6A053C2F200031B68D3F81433184627
:1045C00002F0DEFD034647F25070C0F602001946C5
:1045D00015F0BEFF42F66873C2F200030A221A7099
:1045E00042F66873C2F200030B225A7042F66873F7
:1045F000C2F200030C229A7042F66873C2F2000302
:10460000197841F6A453C2F200031B68D3F8542171
:1046100041F6A453C2F200031B6803F5B07347F2DE
:104620006070C0F602001AF02BFA42F66873C2F20C
:104630000003597841F6A453C2F200031B68D3F873
:10464000582141F6A453C2F200031B6803F5B2736C
:1046500047F27070C0F602001AF012FA42F6687360
:10466000C2F20003997841F6A453C2F200031B681A
:10467000D3F85C2141F6A453C2F200031B6803F592
:10468000B47347F28070C0F602001AF0F9F944F2F0
:104690007150C0F60000FBF745FE80BD80B582B0CA
:1046A00000AF786039607B68012B0AD13A684FF619
:1046B000FF739A4205D145F26030C2F20000FFF765
:1046C000D7FE0837BD4680BD80B500AF01204FF64C
:1046D000FF71FFF7E3FF80BD000000000000000055
:1046E00080B58AB000AF786000237B620CF0C8FB15
:1046F00003463B6100233B6202E03B6A01333B62BD
:104700007B68DA0F13445B101A463B6A9A42F4DC6A
:104710000CF0B6FB02463B69D31AFB600CF0B0FB11
:1047200003463B610023FB610AE040F69403C1F2BB
:104730000003DB687A6A13447B62FB690133FB6127
:10474000FA697B689A42F0DB0CF09AFB02463B69FF
:10475000D31AFB607B6A002B0BD045F26430C2F2A7
:10476000000047F29071C0F602017A68FB6816F00B
:104770009FFB0CF085FB03463B610023BB6114E00B
:10478000202383F3118813F0BBFA40F69403C1F29F
:104790000003DB687A6A13447B6213F0D1FA0023CA
:1047A00083F31188BB690133BB61BA697B689A42A4
:1047B000E6DB0CF065FB02463B69D31AFB607B6AC3
:1047C000002B0BD045F26430C2F2000047F2C071FA
:1047D000C0F602017A68FB6816F06AFB0CF050FB29
:1047E00003463B6100237B6108E00CF049FB034674
:1047F0007A6A13447B627B6901337B617A697B68E7
:104800009A42F2DB0CF03CFB02463B69D31AFB6098
:104810007B6A002B0BD045F26430C2F2000047F6F1
:104820000001C0F602017A68FB6816F041FB2837E8
:10483000BD4680BD80B588B000AF78600123FB61C4
:104840000CF01EFB03463B610023BB6116E040F603
:10485000B4709FED360A01F0DBFBF0EE407AFB69A5
:1048600006EE903AB8EEE67A77EE277AFDEEE77A32
:1048700017EE903AFB61BB690133BB61BA697B6893
:104880009A42E4DB0CF0FCFA02463B69D31AFB6067
:10489000FB69002B0BD045F26430C2F2000047F6F2
:1048A0003801C0F602017A68FB6816F001FB0CF0D3
:1048B000E7FA03463B6100237B611AE045F268405A
:1048C000C2F2000002F024FBFB6907EE903AB8EE5A
:1048D000E77A45F26843C2F20003D3ED037A77EE3C
:1048E000277AFDEEE77A17EE903AFB617B69013398
:1048F0007B617A697B689A42E0DB0CF0C1FA024680
:104900003B69D31AFB60FB69002B0BD045F2643086
:10491000C2F2000047F66801C0F602017A68FB683F
:1049200016F0C6FA2037BD4680BD00BFD4820D40C8
:1049300080B59CB000AF78604FF000024FF00003EC
:10494000C7E91A230CF09CFA03463B614FF00002C2
:104950004FF00003C7E918230FE0D7E91A01D7E9A0
:104960001823121843EB0103C7E91A23D7E91823C8
:10497000013243F10003C7E918237B681A464FEA66
:10498000E273D7E91801904271EB030CE5DB0CF000
:1049900077FA02463B69D31AFB60D7E91A2352EA39
:1049A00003010BD045F26430C2F2000047F69C01CF
:1049B000C0F602017A68FB6816F07AFA4FF001023D
:1049C0004FF00003C7E91A230CF05AFA03463B6183
:1049D0004FF000024FF00003C7E9162319E0FB6E09
:1049E000BA6D02FB03F2FB6DB96E01FB03F3D11844
:1049F000BA6EBB6DA2FB032319440B46C7E91A2309
:104A0000C7E91A23D7E91623013243F10003C7E9A6
:104A100016237B681A464FEAE273D7E916019042E3
:104A200071EB030CDBDB0CF02BFA02463B69D31A6B
:104A3000FB60D7E91A2352EA03010BD145F2643037
:104A4000C2F2000047F6D001C0F602017A68FB68A6
:104A500016F02EFA0CF014FA03463B6100237B6536
:104A600002E07B6D01337B657A6D7B689A42F8DBEF
:104A70000CF006FA02463B69D31AFB6045F264303B
:104A8000C2F2000047F60C11C0F602017A68FB681A
:104A900016F00EFA01233B650CF0F2F903463B6178
:104AA0000023FB6406E03A6D3B6D13443B65FB6CF1
:104AB0000133FB64FA6C7B689A42F4DB0CF0E0F99A
:104AC00002463B69D31AFB603B6D002B0BD145F2CC
:104AD0006430C2F2000047F63C11C0F602017A6869
:104AE000FB6816F0E5F90CF0CBF903463B610123B6
:104AF0003B650023BB6411E03B6D03F164024EF2A1
:104B00007F03C7F6076383FB02C39911D317CB1A40
:104B10003A6D13443B65BB6C0133BB64BA6C7B6874
:104B20009A42E9DB0CF0ACF902463B69D31AFB6010
:104B30003B6D002B0BD045F26430C2F2000047F60B
:104B40006C11C0F602017A68FB6816F0B1F90CF03E
:104B500097F903463B6101237B6400233B6406E035
:104B60007A6C7B6C13447B643B6C01333B643A6C22
:104B70007B689A42F4DB0CF083F902463B69D31A56
:104B8000FB607B6C002B0BD145F26430C2F200005D
:104B900047F69C11C0F602017A68FB6816F088F9A6
:104BA0000CF06EF903463B6101237B640023FB6339
:104BB00011E07B6C03F164024EF27F03C7F60763DA
:104BC00083FB02139911D317CB1A7A6C13447B64BD
:104BD000FB6B0133FB63FA6B7B689A42E9DB0CF0F9
:104BE0004FF902463B69D31AFB607B6C002B0BD05C
:104BF00045F26430C2F2000047F6D011C0F602015F
:104C00007A68FB6816F054F90CF03AF903463B61F8
:104C10004FF07E53BB6300237B6308E0D7ED0E7A31
:104C200077EEA77AC7ED0E7A7B6B01337B637A6BE5
:104C30007B689A42F2DB0CF023F902463B69D31AF7
:104C4000FB60D7ED0E7AF5EE407AF1EE10FA0BD05C
:104C500045F26430C2F2000047F60021C0F60201BE
:104C60007A68FB6816F024F90CF00AF903463B61F8
:104C70004FF07E53BB6300233B6312E097ED0E7A47
:104C8000DFED9F7A37EE277ADFED9E7AC7EE277A3F
:104C900097ED0E7A77EE277AC7ED0E7A3B6B0133EC
:104CA0003B633A6B7B689A42E8DB0CF0E9F802461A
:104CB0003B69D31AFB60D7ED0E7AF5EE407AF1EE40
:104CC00010FA0BD045F26430C2F2000047F63421EE
:104CD000C0F602017A68FB6816F0EAF80CF0D0F82A
:104CE00003463B614FF07E53BB630023FB620EE043
:104CF00097ED0E0A0EF0ACFEF0EE407A97ED0E7ACC
:104D000077EE277AC7ED0E7AFB6A0133FB62FA6A07
:104D10007B689A42ECDB0CF0B3F802463B69D31A8D
:104D2000FB60D7ED0E7AF5EE407AF1EE10FA0BD07B
:104D300045F26430C2F2000047F66821C0F6020175
:104D40007A68FB6816F0B4F80CF09AF803463B61F9
:104D50004FF000024FF00003C3F6F073C7E90823D9
:104D60000023FB6114E0D7E908014FF000024FF087
:104D7000804310F027FD02460B46D7E9080110F0EA
:104D800045FA02460B46C7E90823FB690133FB617C
:104D9000FA697B689A42E6DB0CF072F802463B69DE
:104DA000D31AFB60D7E908014FF000024FF000036F
:104DB00010F04CFE0346002B0BD145F26430C2F2DA
:104DC000000047F69421C0F602017A68FB6816F0ED
:104DD0006FF80CF055F803463B614FF000024FF0BE
:104DE0000003C3F6F073C7E908230023BB6122E088
:104DF000D7E908014FF000024FF00003C4F2590355
:104E000010F004FA02460B46104619464FF0000215
:104E10004FF48043C4F2600310F0D4FC02460B460A
:104E2000D7E9080110F0F2F902460B46C7E908235A
:104E3000BB690133BB61BA697B689A42D8DB0CF06D
:104E40001FF802463B69D31AFB60D7E908014FF00F
:104E500000024FF0000310F0F9FD0346002B0BD1C8
:104E600045F26430C2F2000047F6C821C0F60201E4
:104E70007A68FB6816F01CF80CF002F803463B61F8
:104E80004FF000024FF00003C3F6F073C7E90823A8
:104E900000237B6110E097ED080B0EF0C1FB53EC93
:104EA000102BD7E9080110F0B1F902460B46C7E90B
:104EB00008237B6901337B617A697B689A42EADB6C
:104EC0000BF0DEFF02463B69D31AFB60D7E908010D
:104ED0004FF000024FF0000310F0B8FD0346002B26
:104EE0000BD145F26430C2F2000047F6FC21C0F657
:104EF00002017A68FB6815F0DBFF7037BD4680BDA4
:104F00000000C8420000024380B582B000AF786064
:104F100045F26430C2F2000047F62C31C0F60201BF
:104F20007A6815F0C5FF7A6846F26763C6F2666371
:104F300083FB02139910D317CB1A1846FFF77AFC9C
:104F40007868FFF7CDFB7868FFF7F2FC0837BD46BD
:104F500080BD00BF80B500AF0BF09EFF034645F259
:104F60006430C2F2000047F64031C0F602011A4632
:104F700015F09EFF4FF48053CEF200035B684BF6B2
:104F80003060C2F20000194600220CF047FD0246D4
:104F90000B46104619460AA3D3E9002311F0F8F88E
:104FA00002460B4645F26430C2F2000047F65C311F
:104FB000C0F6020115F07CFF80BD00BFAFF300809A
:104FC000007A030A0000000080B500AF47F6703099
:104FD000C0F60200012115F0BBFA47F69030C0F68A
:104FE0000200012115F0B4FA47F6B430C0F6020011
:104FF000012115F0ADFA47F6CC30C0F602000121D0
:1050000015F0A6FA47F6E430C0F60200012115F0CB
:105010009FFA47F6FC30C0F60200012115F098FA1D
:1050200047F61440C0F60200012115F091FA47F648
:105030002C40C0F60200012115F08AFA47F64040E4
:10504000C0F60200012115F083FA47F67030C0F671
:105050000200012115F07CFA47F65840C0F6020024
:10506000012115F075FA47F67040C0F602000121E3
:1050700015F06EFA47F69040C0F60200012115F0D7
:1050800067FA47F6AC40C0F60200012115F060FA5D
:1050900047F6C840C0F60200012115F059FA47F65C
:1050A000E840C0F60200012115F052FA15F0F8FAB6
:1050B0000346184618F00CFB80BD00BF80B500AF5A
:1050C00045F26430C2F2000047F60851C0F6020112
:1050D00015F0FEFC47F60850C0F6020044F60971D0
:1050E000C0F6000114F0B4FE47F61450C0F60200FA
:1050F00044F65571C0F6000114F0A2FE47F62050A8
:10510000C0F6020044F6C971C0F6000114F098FE22
:1051100080BD00BFAFF30080000000000000000071
:1051200080B582B000AF786047F63050C0F602001C
:10513000796815F00DFA4FF44063C4F202037A68FF
:1051400002F00102002A02D14FF4803200E0002276
:10515000796801F001010A439A610837BD4680BDB4
:1051600080B582B000AF47F64450C0F6020015F09B
:10517000EFF90120FFF7D4FF012013F041F90120DE
:1051800007F008FA4FF4C8737B601AE07A6848F2B7
:105190001F53C5F2EB1383FB02131911D317CB1A5C
:1051A000322101FB03F3D31A002B00D006E078680C
:1051B000FBF70EF840F6B83013F022F97B680133A4
:1051C0007B607A6840F214539A42DFDD0020FAF7E0
:1051D000FFFF002007F0DEF90020FFF7A1FF01200C
:1051E00013F00EF947F65450C0F6020015F0B0F96E
:1051F0000837BD4680BD00BF80B582B000AF786083
:1052000040F67803C1F200039A6947F66853C0F686
:105210000203936102E0C82013F0F2F845F6181378
:10522000C2F200031B68002BF5D045F61813C2F23A
:10523000000300221A60FFF793FF00BFEEE700BFF4
:1052400080B400AF45F61813C2F2000301221A60C1
:10525000BD465DF8047B704780B586B002AF7860CC
:1052600039603B6807EE903AB8EEE77ADFED0E7AE8
:10527000C7EE277A7868B0EE670A00F0F7FC87ED92
:10528000030AF86810F020F902460B46CDE9002326
:1052900047F67050C0F6020079683A6815F058F980
:1052A0001037BD4680BD00BF0000C84280B582B047
:1052B00002AF47F69450C0F602004FF44061C4F2CA
:1052C00002010022012319F023FA47F69850C0F694
:1052D000020045F22111C0F6000114F0B9FD47F6B5
:1052E000A050C0F6020045F24121C0F6000114F0C2
:1052F000A7FD47F6A450C0F6020045F25921C0F6BA
:10530000000114F0ADFD0120FFF70AFF0023009318
:1053100045F27840C2F200004FF49461402245F219
:10532000F913C0F6000313F033F8BD4680BD00BF8B
:1053300080B582B000AF78600EF03EF80346002BD7
:1053400000D004E0786817F0BBFFFFF72FF90837AB
:10535000BD4680BD0000000000000000000000000D
:1053600080B582B000AF78607B681B69002B14BFEA
:1053700000230123DBB2002B06D047F6B050C0F665
:1053800002000EF025F800BF0837BD4680BD00BF03
:1053900080B586B000AF78600BF054FDC7E904011A
:1053A0007B68D3F810315A1C7B68C3F810217B68E6
:1053B00003F59471D7E90423C1E900237B68D3F88E
:1053C0000C31184647F6D051C0F6020147F6D452C8
:1053D000C0F60202FBF7FAFA39697B6803F59873A5
:1053E000D3E900231346CB1AFB607B68FA68C3F845
:1053F000502139697B6803F59C73D3E90023134678
:10540000CA1A7B68C3F840217B6803F59C71D7E911
:105410000423C1E900231837BD4680BD80B588B09C
:1054200000AF78600BF00EFDC7E906017B68D3F88A
:1054300010315A1C7B68C3F810217B6803F5947106
:10544000D7E90623C1E900237B68D3F80C3118465D
:1054500047F6D851C0F6020147F6D452C0F6020210
:10546000FBF7B4FA7B6803F59C73D3E90023D7E913
:105470000601821A61EB0303C7E904237B6803F585
:10548000AC71D7E90423C1E90023FBF7C3F9F86045
:105490007B6803F59073D3E90001D7E90423121860
:1054A00043EB0103796801F59071C1E900237B6842
:1054B000D3F81421FB689A4226D07B68FA68C3F8B7
:1054C00014217B6803F59073D3E90023796801F513
:1054D0008C71C1E900237B6803F590714FF00002E5
:1054E0004FF00003C1E9002345F62813C2F2000380
:1054F000D3E90023D7E90601821A61EB0303796837
:1055000001F5A471C1E900237B6803F59871D7E91F
:105510000623C1E900232037BD4680BD80B582B097
:1055200000AF78607868FFF779FF0837BD4680BD27
:1055300080B584B000AF786039607B684FF4B0729A
:1055400002FB03F245F63813C2F200031344FB607A
:10555000FA683B68002B0CBF00230123DBB2104626
:1055600019461AF03DFF1037BD4680BD80B584B0A6
:1055700000AF78607B684FF4B07202FB03F245F62F
:105580003813C2F200031344FB60F868FFF7E8FE2B
:10559000FB68D3F8103118461037BD4680BD00BFF8
:1055A00080B58AB000AF7860396041F6A453C2F28A
:1055B00000031B683A685E3253F822307B62786AD7
:1055C00019F02EFA3862786A19F042FAF861786AAE
:1055D0001AF08EFEB86141F6A453C2F200031A68B5
:1055E0003B68134403F5C4731B78002B0CBF0023E6
:1055F0000123FB7545F63013C2F200031B685A1CE9
:1056000045F63013C2F200031A603B68042B06DD36
:1056100047F6DC50C0F602000DF0DAFE3EE03B68D3
:105620004FF4B07202FB03F245F63813C2F20003E6
:1056300013443B613B69FB603B697A68C3F80C210A
:10564000FB681433184645F29131C0F600013A69FF
:1056500014F096F8FB689033184645F21D51C0F6D9
:1056600000013A6914F08CF8F868B9693A6AFB6984
:105670001AF066FE3B695B68184618F061FF024647
:105680003B699B6847F6EC50C0F60200396814F09D
:105690005FFFFB7DF86819461AF0A2FE2837BD4669
:1056A00080BD00BF80B586B000AF0346B9607A60A8
:1056B000FB73BB68002B00D019E00BF0C3FBC7E9FC
:1056C0000401396945F62813C2F20003D3E9002327
:1056D0001346CA1A45F62013C2F200031A6045F6B3
:1056E0002813C2F20003D7E90401C3E90001183707
:1056F000BD4680BD80B582B000AF786040F67803CB
:10570000C1F200039A6947F60463C0F6020393618D
:105710004FF47A7012F074FE43F22820C2F20000B7
:105720001BF076FBF4E700BF80B584B000AF786073
:105730007B684FF4B07202FB03F245F63813C2F2F5
:1057400000031344FB60F868FFF70AFEFB68D3F818
:10575000503118461037BD4680BD00BF80B584B0BB
:1057600000AF78607B684FF4B07202FB03F245F63D
:105770003813C2F200031344FB60F868FFF7F0FD32
:105780000BF060FBFB6803F59473D3E90023821AE6
:1057900061EB03034FF41060C0F23D004FF00001D5
:1057A000994208BF90422CBF00230123DBB2002B9B
:1057B00002D0DFED0B7A0EE0FB6803F5AC73D3E9A2
:1057C00000231046194610F0B3FA07EE100ADFED79
:1057D000057AC7EE277AB0EE670A1037BD4680BD5E
:1057E0000000000000007A4480B584B000AF78600B
:1057F0007B684FF4B07202FB03F245F63813C2F235
:1058000000031344FB60F868FFF7AAFDFB6803F58B
:10581000A473D3E90023104619461037BD4680BD56
:1058200080B584B000AF78607B684FF4B07202FB43
:1058300003F245F63813C2F200031344FB60F86824
:10584000FFF78EFDFB68D3F8403107EE903AB8EED3
:10585000677ADFED047AC7EE277AB0EE670A103771
:10586000BD4680BD00007A4480B584B000AF78604A
:105870007B684FF4B07202FB03F245F63813C2F2B4
:1058800000031344FB60F868FFF76AFDFB6803F54B
:105890009C73D3E90023104619461037BD4680BDDE
:1058A00080B586B000AF786039603868FFF756FF82
:1058B00087ED050A3868FFF7B3FF87ED040A7868BB
:1058C00047F61461C0F602013A6847F62063C0F655
:1058D000020315F00DFA97ED057ADFED697A27EEF0
:1058E000277AD7ED047AC7EE277A7868B0EE670A90
:1058F000022115F01DFA786847F62461C0F602010E
:1059000047F62062C0F6020215F0F2F9786847F611
:105910002861C0F602013A6847F62063C0F6020328
:1059200015F0E6F9786897ED050A022115F000FAFE
:10593000786847F62461C0F6020147F62062C0F697
:10594000020215F0D5F9786847F63461C0F6020115
:105950003A6847F62063C0F6020315F0C9F945F628
:105960003813C2F200033A684FF4B07101FB02F23F
:10597000134403F58C73D3E900231046194610F045
:10598000D7F907EE100ADFED3F7AC7EE277A78687D
:10599000B0EE670A022115F0CBF9786847F624616A
:1059A000C0F6020147F62062C0F6020215F0A0F927
:1059B000786847F64461C0F602013A6847F620630A
:1059C000C0F6020315F094F9786897ED040A0221F5
:1059D00015F0AEF9786847F62461C0F6020147F683
:1059E0002062C0F6020215F083F93868FFF7FCFE6A
:1059F00002460B461346FB604BF61C60C2F20000E9
:105A0000FAF746FD034618460CF090FC87ED020AB3
:105A1000786847F65061C0F602013A6847F620639D
:105A2000C0F6020315F064F9FB6807EE903AB8EE91
:105A3000677AD7ED027AC7EE277A41F6A053C2F211
:105A400000031B6893EDEA7A77EEC77AB0EE670A37
:105A50000CF096FCF0EE407A7868B0EE670A03210D
:105A600015F066F9786847F62461C0F6020147F63A
:105A70002062C0F6020215F03BF91837BD4680BD22
:105A80000000C84200007A4480B582B000AF786060
:105A900078680021FFF704FF78680121FFF700FF15
:105AA0000837BD4680BD00BF80B582B002AF46F268
:105AB0001800C2F2000047F65C61C0F6020115F062
:105AC00007F847F66460C0F602000021FFF768FDA2
:105AD00047F66C60C0F602000121FFF761FD45F258
